:0400000007EF00F016
:0A00080001825CED05F0C8EF05F081
:1008000000004C04D8A407EF04F009EF04F026EF31
:1008100004F04B50D96EDA6A070ED926DF504D6EC0
:10082000010E4E6E4D2A17EF04F0D8904E364D2E25
:1008300015EF04F04B50D96EDA6A060ED926DF5058
:10084000D96EDA6A4E50DF1244EF04F04B50D96E85
:10085000DA6A070ED926DF504D6E010E4E6E4D2A14
:1008600034EF04F0D8904E364D2E32EF04F04E5057
:10087000FF0A4F6E4B50D96EDA6A060ED926DF504A
:10088000D96EDA6A4F50DF164B50D96EDA6A060E0F
:10089000D926DF50D96EDA6A4B50E16EE26A020E59
:1008A000E126E6CF4DF0E5CF4EF04DC0E1FF4EC062
:1008B000E2FFDFCFE7FF1200446A90EF04F04450FC
:1008C000070DF350060FD96EDA6ADE2A000EDD221C
:1008D0004450070DF350040FD96EDA6A4450070DE7
:1008E000F350060FE16EE26ADE50E65CDE50E65839
:1008F000D8A07DEF04F07FEF04F08FEF04F04450B8
:10090000070DF350060FD96EDA6ADE6ADD6A4450CD
:10091000070DF350080FD96EDA6A010EDF6E442A14
:100920002550445CD8A097EF04F099EF04F05FEFF6
:1009300004F012004F6AC5EF04F04F50070DF3505A
:10094000080FD96EDA6ADF50D8B4A9EF04F0ABEF24
:1009500004F0C4EF04F04F50070DF350080FD96EA8
:10096000DA6ADF6A4F50070DF350020FD96EDA6A68
:1009700002D8C4EF04F00500FA6EDE50FD6EDE50C2
:10098000FE6EFF6AFA5012004F2A25504F5CD8A025
:10099000CCEF04F0CEEF04F09DEF04F012004B50CA
:1009A000D96EDA6A070ED926DF504C6E010E4D6EF5
:1009B0004C2ADDEF04F0D8904D364C2EDBEF04F0DE
:1009C0004B50D96EDA6A060ED926DF50D96EDA6A34
:1009D0004D50DF1A4B50D96EDA6A060ED926DF5019
:1009E000D96EDA6A4B50E16EE26A020EE126E6CF7A
:1009F0004CF0E5CF4DF04CC0E1FF4DC0E2FFDFCF42
:100A0000E7FF1200040E256408EF05F00AEF05F079
:100A10000CEF05F030EF05F02550070DF350020FF5
:100A2000D96EDA6A4BC0DEFF4CC0DDFF2550070DE2
:100A3000F350040FD96EDA6A4DC0DEFF4EC0DDFF01
:100A40002550070DF350060FD96EDA6ADE6ADD6AAB
:100A50002550070DF350080FD96EDA6ADF6A252A90
:100A600012004B6A4B50070DF350020FD96EDA6A31
:100A7000DE6ADD6A4B50070DF350040FD96EDA6A57
:100A8000DE6ADD6A4B50070DF350060FD96EDA6A45
:100A9000DE6ADD6A4B50070DF350080FD96EDA6A33
:100AA000DF6A4B2A040E4B6458EF05F05AEF05F04D
:100AB00032EF05F0256A12000600E1CF45F0E2CFE3
:100AC00046F0D9CF47F0DACF48F0F3CF49F0F4CF72
:100AD0004AF0F2A46EEF05F070EF05F077EF05F045
:100AE000F294F60ED76E3C0ED66E5CEC04F04AC063
:100AF000F4FF49C0F3FF48C0DAFF47C0D9FF46C042
:100B0000E2FF45C0E1FF019211004C50D8A48BEFE9
:100B100005F08DEF05F09BEF05F04B50D96EDA6ACA
:100B2000DECF4DF0DDCF4EF04DC0D9FF4EC0DAFF25
:100B3000DF6AA8EF05F04B50D96EDA6ADECF4DF0D0
:100B4000DDCF4EF04DC0D9FF4EC0DAFF010EDF6E93
:100B5000120000EC06F031EC05F019EC06F06C0E1A
:100B60004B6E0C0E4C6E4E6AC80E4D6E02EC05F0CC
:100B7000640E4B6E0C0E4C6E010E4E6EF40E4D6EEE
:100B800002EC05F09AEC04F0C2EF05F007EF00F07C
:100B9000540EF66E0C0EF76E000EF86E00EE30F08E
:100BA00010EE10F00900F5CFEEFFE550E150FAE14C
:100BB00000EE02F02E0EEE6AE806FDE101900192D1
:100BC000000EF86E0001A9EF05F04E6EF4EF05F08F
:100BD000380E4B6ECFEC04F0FFEF05F0300E4B6E8D
:100BE000CFEC04F0FFEF05F04E50000AD8B4E8EF68
:100BF00005F0010AD8B4EEEF05F0FFEF05F01200A2
:100C0000380E4B6E000E4C6E85EC05F0380E4B6EB8
:100C1000000E4C6E01EC04F0300E4B6E000E4C6E6C
:100C200085EC05F0300E4B6E000E4C6E01EC04F0BE
:100C30001200D56AD59CD59AD596D550F80B0209E5
:100C4000D56EF60ED76E3C0ED66EF294F28AF28E08
:100C5000D58E1200950F8C0F830F2F01950F8C0FDF
:100C6000830F2F00010EE5EC05F01200000EE5ECFD
:040C700005F0120079
:020000040030CA
:08000000000C1E1EFF8181FFB0
:00000001FF
