:0400000007EF00F016
:0A00080001821EED04F001EF04F088
:1008000000005E0EF66E080EF76E000EF86E00EE3B
:1008100002F010EE12F00900F5CFEEFFE550E150C6
:10082000FAE100EE14F00A0EEE6AE806FDE101902E
:100830000192000EF86E000138EF04F00600F2A4F9
:1008400024EF04F026EF04F02DEF04F0F294F60EFE
:10085000D76E3C0ED66E3CEC04F001921100950F61
:100860008C0F830F000001950F8C0F830F00000089
:0A08700038EF04F007EF00F012006B
:00000001FF
