:0400000007EF00F016
:0A00080001827BED05F0C8EF05F062
:1008000000005304D8A407EF04F009EF04F02DEF23
:1008100004F05250D96EDA6A080ED926DF50000172
:10082000606F010E616F602B18EF04F0D890613794
:10083000602F16EF04F05250D96EDA6A060ED926F0
:10084000DECF62F0DDCF63F062C0D9FF63C0DAFFB4
:1008500000016151DF1252EF04F05250D96EDA6A92
:10086000080ED926DF500001606F010E616F602B0A
:100870003CEF04F0D8906137602F3AEF04F00001AC
:100880006151FF0A626F5250D96EDA6A060ED9269C
:10089000DECF63F0DDCF64F063C0D9FF64C0DAFF60
:1008A0006251DF165250D96EDA6A060ED926DECFB3
:1008B00060F0DDCF61F060C0D9FF61C0DAFF525057
:1008C000E16EE26A020EE126E6CF62F0E5CF63F068
:1008D00062C0E1FF63C0E2FFDFCFE7FF12005250CA
:1008E000D96EDA6A080ED926DF500001606F010E5A
:1008F000616F602B7EEF04F0D8906137602F7CEF42
:1009000004F05250D96EDA6A060ED926DECF62F0B4
:10091000DDCF63F062C0D9FF63C0DAFF000161512F
:10092000DF1A5250D96EDA6A060ED926DECF60F091
:10093000DDCF61F060C0D9FF61C0DAFF5250E16ED7
:10094000E26A020EE126E6CF62F0E5CF63F062C014
:10095000E1FF63C0E2FFDFCFE7FF12004B6AE2EF87
:1009600004F04B50070DF350060FD96EDA6ADE2AF9
:10097000000EDD224B50070DF350040FD96EDA6ADA
:100980004B50070DF350060FE16EE26ADE50E65C55
:10099000DE50E658D8A0CFEF04F0D1EF04F0E1EF3D
:1009A00004F04B50070DF350060FD96EDA6ADE6A79
:1009B000DD6A4B50070DF350080FD96EDA6A010E4D
:1009C000DF6E4B2A25504B5CD8A0E9EF04F0EBEF2B
:1009D00004F0B1EF04F01200546A17EF05F0545020
:1009E000070DF350080FD96EDA6ADF50D8B4FBEF69
:1009F00004F0FDEF04F016EF05F05450070DF3502E
:100A0000080FD96EDA6ADF6A5450070DF350020FEF
:100A1000D96EDA6A02D816EF05F00500FA6EDE50DC
:100A2000FD6EDE50FE6EFF6AFA501200542A255009
:100A3000545CD8A01EEF05F020EF05F0EFEF04F0B6
:100A40001200040E256427EF05F029EF05F02BEFC7
:100A500005F04FEF05F02550070DF350020FD96E4A
:100A6000DA6A60C0DEFF61C0DDFF2550070DF3507C
:100A7000040FD96EDA6A62C0DEFF63C0DDFF255065
:100A8000070DF350060FD96EDA6ADE6ADD6A25506B
:100A9000070DF350080FD96EDA6ADF6A252A1200B3
:100AA000526A5250070DF350020FD96EDA6ADE6AAD
:100AB000DD6A5250070DF350040FD96EDA6ADE6A10
:100AC000DD6A5250070DF350060FD96EDA6ADE6AFE
:100AD000DD6A5250070DF350080FD96EDA6ADF6AEB
:100AE000522A040E526477EF05F079EF05F051EFCA
:100AF00005F0256A12000600E1CF4CF0E2CF4DF080
:100B0000D9CF4EF0DACF4FF0F3CF50F0F4CF51F011
:100B1000F2A48DEF05F08FEF05F096EF05F0F2945B
:100B2000F60ED76E3C0ED66EAEEC04F051C0F4FF5C
:100B300050C0F3FF4FC0DAFF4EC0D9FF4DC0E2FFF7
:100B40004CC0E1FF019211005350D8A4AAEF05F068
:100B5000ACEF05F0BAEF05F05250D96EDA6ADECF8D
:100B600060F0DDCF61F060C0D9FF61C0DAFFDF6AFD
:100B7000C7EF05F05250D96EDA6ADECF60F0DDCFF4
:100B800061F060C0D9FF61C0DAFF010EDF6E1200B4
:100B9000800EF66E0C0EF76E000EF86E00EE35F05D
:100BA00010EE12F00900F5CFEEFFE550E150FAE14A
:100BB00000EE02F0330EEE6AE806FDE101900192CC
:100BC000000EF86E000119EF06F0536EF4EF05F019
:100BD0003E0E526E6FEC04F0FFEF05F0350E526ED4
:100BE0006FEC04F0FFEF05F05350000AD8B4E8EFC3
:100BF00005F0010AD8B4EEEF05F0FFEF05F01200A2
:100C00003E0E526E000E536EA4EC05F03E0E526E78
:100C1000000E536E01EC04F0350E526E000E536E52
:100C2000A4EC05F0350E526E000E536E01EC04F08C
:100C3000120000EC06F050EC05F030EC06F0920EDD
:100C40000001606F0C0E616F010E636FF40E626F36
:100C500021EC05F0ECEC04F02AEF06F007EF00F0D1
:100C6000D56AD59CD59AD596D550F80B0209D56E84
:100C7000F60ED76E3C0ED66EF294F28AD58E120026
:100C8000950F8C0F830F000001950F8C0F830F00C1
:0A0C90000000000EE5EC05F0120074
:00000001FF
